:020000040800F2
:10000000B0090020B5010008BD010008BF010008CB
:10001000C1010008C3010008C5010008000000007C
:10002000000000000000000000000000C701000800
:10003000C901000800000000CB010008CD01000844
:10004000CF010008CF010008CF010008CF01000850
:10005000CF010008CF010008CF010008CF01000840
:10006000CF0100085D220008C5230008CF01000869
:10007000CF010008CF010008CF010008CF01000820
:10008000CF010008CF010008CF010008CF01000810
:10009000CF010008CF010008CF010008512500085A
:1000A000CF010008CF010008CF010008CF010008F0
:1000B000C12F0008BD30000869310008CF010008D9
:1000C000CF010008CF010008CF010008CF010008D0
:1000D000CF01000851340008C53400083935000844
:1000E00021210008CF010008CF01000800F002F82C
:1000F00000F050F80AA090E8000C82448344AAF172
:100100000107DA4501D100F045F8AFF2090EBAE86F
:100110000F0013F0010F18BFFB1A43F0010318473B
:10012000CC470000EC470000103A24BF78C878C1E3
:10013000FAD8520724BF30C830C144BF04680C60ED
:10014000704700000023002400250026103A28BF35
:1001500078C1FBD8520728BF30C148BF0B60704739
:10016000662904F0F982732900F0CB8300207047E0
:100170001FB500F03FFC04000020002103F088FEC2
:10018000401C60600020002103F06CFEE0601FBD99
:1001900010B510BD00F082FD1146FFF7E9FF03F036
:1001A00097FC01F025F803B4FFF7F2FF03BC01F060
:1001B00093FA00000948804709480047FEE7FEE738
:1001C000FEE7FEE7FEE7FEE7FEE7FEE7FEE7FEE707
:1001D00004480549054A064B70470000392F0008BE
:1001E000ED000008B0030020B0090020B005002099
:1001F000B00500200FB41CB5074B06AA7B44694626
:100200000090059800F053FB0020694600F062FB67
:100210001CBC5DF814FB0000D506000070B5044658
:1002200085690068C10601D5302600E02026C00798
:1002300007D070BDD4E9012130469047206A401CA8
:1002400020626D1EF6D570BD70B5044685690078D4
:10025000C00707D170BDD4E9012120209047206A52
:10026000401C20626D1EF6D570BD70B50C4605466B
:10027000012A05D02878800600D5EA69002302E02B
:10028000012305E05B1C934202D2E05C0028F9D117
:10029000A869E618C01AA861286A18442862284686
:1002A000FFF7BCFF04E0D5E9012114F8010B9047EA
:1002B000B442F8D32846FFF7C7FF70BD2DE9F047D9
:1002C0004FF0000A89460446C0F820A02046E168A5
:1002D0008847002876D0252806D0D4E90121904708
:1002E000206A401C2062F1E7E1682046002588472B
:1002F000C4F81CA006460027C4F818A02A2E09D06E
:10030000304603F05AFB38B304EB8708303EC8F898
:10031000186019E059F8041B204604EB870291612C
:10032000E1688847012F064618D1E069002820DAE5
:1003300025F020051DE0D8F8180000EB800006EB42
:1003400040003038C8F818002046E1688847064663
:1003500003F033FB0028EED1012F0AD02E2E08D156
:100360002046E16888477F1C0646022F45F020059D
:10037000C4DBA069002803DA404245F00105A06112
:10038000E80701D025F01005B6B1A6F14100192803
:1003900002D8203645F400654A463146204625609D
:1003A0004D46FFF7DDFE58B1012806D0ED1D25F0C2
:1003B000070000F1080989E704E005F1040985E771
:1003C00030468AE7206ABDE8F08740EA010302462A
:1003D00030B59B0710D14FF0013400E008C208C9C6
:1003E0001D1B9D4315EAC41FF8D013F0FF0102F84E
:1003F000011B0DD01B0AF8E711F8013B002B02F896
:10040000013B05D011F8013B002B02F8013BF3D171
:1004100030BD10B5044610F0030F08BF11F0030FF4
:1004200040F015804FF0013E121FC0F20E8051F8CF
:10043000043BA3EB0E0C2CEA030C1CEACE1C08BFF9
:1004400040F8043BF0D0A1F1040102F10402521E75
:1004500008DB11F8013B002B00F8013BF7D11146F6
:1004600000F0A6FA204610BD70477047704710B5DF
:1004700000F0C4FA006810BD10B5044600F0BEFAE2
:10048000046010BD70472DE9FF4F0C461E464FF02B
:10049000FF378BB0D2E90001DDF860800A908A4610
:1004A000C1F30A5505B93D46002108464FF000004A
:1004B000BAF1000F00F4400005DA00EB80004FF4C1
:1004C000400101EA50004FEA9059B9F1010F00DDF7
:1004D000B9460A9850EA4A000ED044F61050A5F2E8
:1004E000FF3545432F14B8F1000F1ED07542291E69
:1004F0001EDDC9F100021CE0B8F1010F4FF0000051
:1005000001D0302103E0F24305E02154401CB04209
:10051000FBDB30460022002121540B99C1F80880F2
:10052000C1E900200FB0BDE8F08FBD1B6D1CDEE7F8
:100530004A4600DA694206A800F012FB06AB93E8CF
:10054000070003AB83E8070050460A9901F0ECF876
:100550008DE80700A0F500501F3800900398002D8B
:100560000ADD42F21F014A460844002303A9039012
:10057000684601F097FB09E0A0F500504A461F3895
:10058000002303A90390684601F0B6FB8DE807003D
:100590000004000C03D04FF0FF30410800E010468B
:1005A000B8F1000F03D00022009215461EE0751E20
:1005B00005D400F027FA303262556D1EF9D5B346E6
:1005C0000122084302D000227F1C04E0207830285A
:1005D00001D100227F1E002A099784D01DE0112D31
:1005E00007DA00F00FFA303262556D1C50EA010252
:1005F000F5D1084302D00098C8B10EE00021681E72
:1006000005E0235C625C63542254401E491C814215
:10061000F7DBAB46A81B401E0990002004F80B0036
:100620000B98099AC0F80880C0E9002B7AE71126D8
:100630004FF0000857E72DE9F04F88460446D21DD9
:1006400022F0070191B0D1E90001CDE90A0103F0E0
:100650001FF902460B98C00F01D02D2007E020683B
:10066000810701D52B2002E0202101EAC000032AE6
:10067000099001D0072A05DB03464146204600F0D9
:100680000FFA0BE12078800601D5E06900E0062032
:10069000B8F1650F814606D0B8F1660F18D0B8F1F1
:1006A000670F70D131E00020B9F1110F009001DB2C
:1006B000112301E009F101030AAA01A90CA8FFF71F
:1006C000E2FEDDE90C70002609F10105834647E0F2
:1006D00001204B4600904FF000470AAA01A90CA840
:1006E000FFF7D1FEDDE90DB00C995D46002610B98B
:1006F00009F101000D18B9EB050003D4C0F1FF3674
:1007000009F10105A5EB09002BE0B9F1010F01DAB0
:100710004FF001090020B9F1110F0090484601DDAA
:10072000112300E003460AAA01A90CA8FFF7ABFEBB
:10073000DDE90C704D4600268346207800070AD478
:10074000AB4500DA5D4601A8012D04DD411911F821
:10075000011C302907D04F4502DA17F1040F04DAE3
:10076000012082460FE06D1EEEE7002F02DCED1B3C
:100770003E4403E0781CA84200DD7D1CB81B00F15C
:10078000010A4FF000472078000703D4AA4501DB97
:100790004FF0FF3A0021B7F1004F0DF143088DF8FB
:1007A000431024D002202B23002F01DA7F422D2377
:1007B0000A21021EA0F1010000DC5FB197FBF1FCF1
:1007C00097FBF1F201FB1C7C17460CF1300C08F88A
:1007D00001CDEEE7A8F1010003702188090501D5DC
:1007E000452100E06521A0F1010800F8011C0998ED
:1007F0000FA9A1EB0807FF1D00B10120411901EB72
:10080000EA70A1693844081A401EA0612078C00629
:1008100002D42046FFF702FD099828B1D4E901214E
:100820009047206A401C20622078C00622D52046CE
:10083000FFF7F4FC1EE0002E04DBB34502DD01A847
:10084000805D00E03020D4E901219047206A401CFF
:100850002062761CAAF101005FEA000A0AD100F0CA
:10086000C9F8C0680168405CD4E901219047206A5A
:10087000401C2062281EA5F10105DCDC07E0D4E95C
:10088000012118F8010B9047206A401C2062381E95
:10089000A7F10107F3DC2046FFF7D6FC032011B0D7
:1008A00041E6000001694A1C02610878704700B502
:1008B0008FB0CDE901310021059105497944CDE999
:1008C000031011466846FFF7F9FC0FB000BD0000A9
:1008D000E5FFFFFF0A6802F8010B0A60704710B5D8
:1008E000436913B1AFF3008001E0FFF7BEFC0120C4
:1008F00010BD127800F124010A7000224A70012212
:10090000EDE711684FF0FF32E9E700000FB4002374
:1009100000B589B00CA900910B99CB60214B7B44A9
:100920000693214B7B44079304236FF00042CDE9EB
:1009300001321E4A7A446B4608920246002003F0B8
:100940006DFF09B05DF814FB70B506464FF0FF303F
:1009500015460C46324686B00091CDE90101694644
:100960000020049004A8FFF7D1FF02460498211844
:1009700025B108B1084600E0204628600498002808
:100980000DD0002A02DD0098884208D03246081BAC
:1009900069460094CDE9010404A8FFF7B7FF06B04B
:1009A00070BD0000FF0100001702000057010000A9
:1009B0004FF000020429C0F0128010F0030C00F088
:1009C0004381CCF1040CBCF1020F18BF00F8012BDD
:1009D000A8BF20F8022BA1EB0C0100F035B95FEAAB
:1009E000C17C24BF00F8012B00F8012B48BF00F8A0
:1009F000012B7047004870476C0300200048704787
:100A00004C03002030B5B0F10A024FEA900E71F1AC
:100A100000034EEA817EB0EB0E0061EB91014FEADC
:100A2000101E4EEA017E10EB0E0041EB11114FEA51
:100A3000102E4EEA016E10EB0E0041EB11214FEA31
:100A4000104E4EEA014E10EB0E0041EB11414018E2
:100A500041F100014FEAD00040EA41704FEAD10174
:100A600010EB80054FEA810444EA907444EB0104E2
:100A70006D1944EB0404521BA3414FF0000348BF1F
:100A80000A3200D530BD401C41F1000130BD10B527
:100A9000044600F029F90068005D00F0010010BD77
:100AA0002DE9F0411F46044603260168072A01F498
:100AB000006004DB08B116A505E016A503E008B147
:100AC00015A500E015A521F010002060A069C01E4A
:100AD000A0610FB1401EA0612046FFF79FFB4FB100
:100AE000D4E9012138469047206A401C2062C01C8E
:100AF000206206E0206AFAE7D4E9012115F8010B2B
:100B00009047761EF8D22046FFF79EFBBDE8F081A5
:100B10004E414E006E616E00494E4600696E6600A1
:100B2000426842B1016811F8013B23B1521EC0E98D
:100B30000012184670470121C160881E7047426844
:100B40005AB1C368016843B983688B4205D0491E16
:100B5000521CC0E90012002070474FF0FF30704770
:100B60002DE9F047814616468AB0354878440DC8CD
:100B70008DE80D0032487844801C03AC0DC884E831
:100B80000D0041F69B300844372190FBF1F290FBB9
:100B9000F1F5A5F1800501FB12041B3C02D564426E
:100BA000012000E00020DFF898A080460027FA44EA
:100BB000AAF1BE0A0EE0E0070AD03246684607EB0B
:100BC000470101230AEB810101F096F88DE8070047
:100BD00064107F1C002CEED1194F7F44AE3F19E00A
:100BE000E80715D007EB04100DF1180A90E80E0085
:100BF0008AE80E00C068F04201D198190890324688
:100C0000012306A903A801F077F803AB83E80700E6
:100C10006D10641C002DE3D14FF00103324669468C
:100C2000B8F1000F03A802D001F03CF801E001F098
:100C300063F8C9E90001C9F808200AB0BDE8F087E7
:100C4000643D00004FF0000200B5134694469646FE
:100C5000203922BFA0E80C50A0E80C50B1F12001CF
:100C6000BFF4F7AF090728BFA0E80C5048BF0CC07D
:100C70005DF804EB890028BF40F8042B08BF7047DB
:100C800048BF20F8022B11F0804F18BF00F8012B4D
:100C900070470000004870474C0300207546FFF77E
:100CA000F9FFAE4605006946534620F00700854629
:100CB00018B020B5FFF78CFABDE820404FF00006D1
:100CC0004FF000074FF000084FF0000B21F0070134
:100CD000AC46ACE8C009ACE8C009ACE8C009ACE877
:100CE000C0098D467047000010B5FFF783FE001D58
:100CF00010BD00BF9D3100002DE9FF4F06468BB0AF
:100D00000878FF2806D0491C2D2805D000244FF074
:100D1000000908E000200CE00124F8E709EB890352
:100D2000491C00EB43090878FF28F7D114B1C9F139
:100D300000008146107800252C46AA4629462D2819
:100D400001D02B2804D1521C2D2813D0002082461C
:100D50008B461078FF280FD04FF0000C0A21521C50
:100D6000A5FB017804FB018105FB0C11C5194BEBB8
:100D70000104EEE70120EAE7002108464FF00000F9
:100D8000BAF1000F02D000EB80004008C0F3815799
:100D9000012F01DD4FF0FF370E9955EA040009EBF2
:100DA00001080BD04FF0020918F5FA7F16DA4FEA66
:100DB000CA70002F706008DD012007E04FEACA709A
:100DC000C6E900B00FB0BDE8F08F00203060FFF73B
:100DD00015FEC0F800901821084616E0B8F5FA7F15
:100DE00018DD002F02DAF748784401E0F64878442D
:100DF000D0E90010C6E9001040EACA707060FFF741
:100E0000FDFDC0F80090142108460FB0BDE8F04F7A
:100E100003F09FBC002108464FF00000B8F100012C
:100E2000099002DAC7F1000200E03A4601DAC8F19F
:100E3000000106A8FFF794FE06AB93E8070003AB9A
:100E400083E8070044F23E005BEA04010090584644
:100E500004D144F21E012C465D460091210C090488
:100E6000014306D10099240444EA15442D041039A5
:100E7000009104F07F41014306D10099240244EA25
:100E800015642D020839009104F07041014306D128
:100E90000099240144EA15742D01091F009104F002
:100EA0004041014306D10099A40044EA9574AD0085
:100EB000891E009104F00041084304D100986D1987
:100EC0006441401E00904FF001033A466846B8F175
:100ED000000FCDE9014503A902DD00F022FF01E08A
:100EE00000F0F5FEBAF1000F04460D4601D084F083
:100EF0000044002108464FF00000099940F2FF77B6
:100F0000484010F00C0F07D124F00040284303D0D4
:100F1000C4F30A50B84212D1FFF770FDC0F8009038
:100F2000C4F30A50B8420AD1A8487844D0E9001066
:100F3000C6E9001004F000410843706042E7C6E9CA
:100F400000543FE72DE9FF4F1F464FF0000A4FF0D6
:100F5000FF38454691B0D7E90146CDF83CA0FFF7F0
:100F600049FDC0680168405C1090B96912986D1C19
:100F70008847396A814688470028F6D1B9F1FF3F92
:100F80000AD0002E24F4D06411DDB9F12B0F08D063
:100F9000B9F12D0F0BD102E0404615B013E744F430
:100FA0008064B96912986D1C8847761E8146600579
:100FB00004A901D52D2000E02B20002E01F1010B0A
:100FC0000DF130088DF810003FDDB9F1690F08D040
:100FD000B9F1490F05D0B9F16E0F02D0B9F14E0F3A
:100FE0001CD13B4601A8009580E85002DDE91212B1
:100FF0006FF0020003F016FCC11CCED10EE0B969FF
:1010000012986D1C884781461398761E44F400742C
:1010100005600F98401C002E0F9016DDB9F1300FBF
:10102000EDD0B9F1780F02D0B9F1580F0DD10F986A
:1010300001280AD13B46CDE90054DDE91212001F18
:10104000029603F0EDFBC11CA7D1109989453ED152
:1010500044F0800406E01399681CAAF1010A44F4E4
:1010600000740860B9696D1C1298761E8847302894
:101070008146F0D02BE01099894505D1200603D494
:10108000761E44F0800418E0484602F096FC08B34F
:10109000761E0DF123018B4544F4007408D2A9F1AA
:1010A00030000BF8010B200607D5AAF1010003E080
:1010B000200602D40AF101008246A00502D5139948
:1010C000681C0860B96912986D1C88478146002E1B
:1010D000D1DC53E0002E51DDB9F1650F02D0B9F13A
:1010E000450F4BD1A00549D5B9696D1C1298761EE4
:1010F00024F440748847002E81460CDD2B2804D050
:10110000B9F12D0F07D144F48074B96912986D1CA0
:101110008847761E8146E00501D52D2100E02B2170
:1011200008F8011BCDF8008021E0761E0DF1390191
:10113000884544F400740CD2A9F1300010F0FF008F
:1011400088F8000002D10099884509D908F1010802
:1011500006E0E00501D51E4801E042F20F7082462C
:10116000B96912986D1C8847814613980560002E56
:1011700004DD484602F021FC0028D6D1F969129816
:101180008847FF2053468BF8000088F800000020B5
:101190000A900B9004AA0CA90AA8FFF7ADFDA005C0
:1011A00002D46FF00100F8E614F0240F12D0E0072B
:1011B0001CD13868DDE90A12031D3B600068C0E9F4
:1011C000001213E0283B00001A3B0000DE3900004B
:1011D000F1D8FFFF0AA9684602F07EFBE00705D1BF
:1011E0003868009A011D3960006802602846D4E61C
:1011F00010B50446AFF300802046BDE81040FEF76E
:10120000D2BF00004FF0013C50F8042B51F8043BD2
:101210009A4221D1A2EB0C03934313EACC1317D1CA
:1012200050F8042B51F8043B9A4215D1A2EB0C0361
:10123000934313EACC130BD150F8042B51F8043B21
:101240009A4209D1A2EB0C03934313EACC13DBD0EF
:101250004FF00000704700BFD01A01BAB1FA81F117
:1012600001F0180122FA01F0CB40C1F12001DBB2FC
:10127000C0B2C01A2CFA01F3D11A914311EAC3117A
:10128000E6D170472DE9FF4F1F464FF03C0987B06C
:101290004FF00042DDE9141001F10108DDF858A01B
:1012A00002EA40500390002005908346054604461C
:1012B0000490B969461E08988847AAF1010A02906D
:1012C000BAF1000F3BDD02982E2815D0102100F056
:1012D0001CFA00282EDB4FF0010B0599014317D0B3
:1012E000B9F1000F0BDB4A46C11700F0FBF90543CB
:1012F0000C43A9F1040905E0012004900BE008B1BA
:1013000045F0010501200590049820B9361D02E042
:10131000049800B1361FB969089808F10108884798
:10132000BBF1000FAAF1010A0290C9D00999C1F8D6
:101330000080C5E70298702808D0502806D0F969C7
:1013400008988847BBF1000F14D04FE000200290AE
:101350000120BBF1000F049009D0B969089808F189
:1013600001088847AAF10109B9F1000F07DCF96902
:10137000089888476FF001000BB0BDE8F08F2B286C
:1013800004D02D280CD14FF0FF300490B969089893
:1013900008F101088847A9F10109B9F1000FE6DD5C
:1013A000411CE4D00A2100F0B0F90028DFDB0299EB
:1013B00008F1010801EB810100EB41000290B969DD
:1013C000089888470A2100F0A0F9099AA9F10109B3
:1013D000B9F1000FC2F8008001DD0028E7DAF969F1
:1013E000089888470499029800FB016655EA0400B2
:1013F00004D004F04041090002D006E0039898E0D0
:10140000A40044EA9574AD00B61E04F00041080043
:1014100002D16D196441761E159810F0240F03D087
:101420004FF00B095C4803E04FF028096FF07D0096
:101430008246564507DAAAEB06018944B9F1410F05
:1014400001DD4FF0410901200021A9F1010200F066
:1014500049F9024628400B462140084301D00121AA
:1014600000E00021501E029143F1FF31284021404D
:10147000084301D0012000E000200299834651EA90
:101480000B014FD0002108464FF00000039900F4F3
:10149000400039B100EB80004FF4400100EBD07008
:1014A00001EA60008015012802DD4FF0FF3000E006
:1014B00013D0401C36D0029860B3BBF1000F0CD1A2
:1014C0004A460120002100F00DF928402140084340
:1014D00001D0012000E00020E0B101204A460021B7
:1014E00000F000F9034640190A4661412D1A8C416B
:1014F00011D3B9F1400F09DD159810F0240F02D077
:10150000AAF1340603E0AAF1170600E0761C0025D4
:101510004FF0004406E05B1E42F1FF3220EA030573
:1015200021EA0204CAF10100B04206DA1B4903981D
:1015300008430190002000900EE0039AC4F3D321E9
:10154000E80A0A43164940EA44500A433146CDE9C5
:101550000002684602F026FA159810F0240F0BD00E
:101560001598C00715D13868DDE90012031D3B60EE
:101570000068C0E900120CE002A8694602F0ACF96C
:101580001598C00705D13868029A011D39600068B6
:1015900002604046F0E6000002FCFFFF0000F07F22
:1015A0000000F03F2DE9FF4F92461D4685B04FF0F9
:1015B0000041DDE9124BDDE914727F1E01EA4B5058
:1015C000414940F0FF4940EA0108002122F0200093
:1015D0004928049102D04E2828D04CE03BA0012697
:1015E00007C88DE80700A9690698641C88477F1E14
:1015F000014606D41DF8060018B121F020018142F1
:101600000BD0E96906988847032E34D0082E32D0D3
:101610006FF0010009B0BDE8F08F761C032E01D0F9
:10162000082EE0D1601CCAF80000DCE7A969069822
:10163000641C88477F1E2AD420F02000412826D130
:10164000A9690698641C88477F1E20D420F02000DA
:101650004E281CD1A9690698641C88477F1E48F44F
:10166000002849F48009CAF8004001D4282806D08F
:10167000E969069888475FEACB7012D022E0A96931
:101680000698641C88477F1E01D4002803DAE969A4
:1016900006988847BCE72928F1D1641CCAF80040A5
:1016A000E9E71BF0240F07D028680499031D2B607D
:1016B0000068C0E9001805E02868021D2A6000687B
:1016C000C0F800902046A5E70000F07F494E46494B
:1016D0004E4954590000000001491820ABBEFEE7F6
:1016E00026000200B2F120030AD5C2F1200301FA5C
:1016F00002F120FA03F300FA02F041EA0301704715
:1017000000FA03F14FF0000070473A2800D2303859
:1017100020F02002412A01D3A2F13700884201D3F0
:101720004FF0FF30704770475FEA400C08BF91F000
:10173000000F4FEA8C234FEAC12243EA51514FEA8E
:101740001C5018BF00F5F0404FEA300018BF41F0C0
:1017500000415FEA6C5C00F02980BCF1FF3F08BFEC
:1017600040F080407047130C06BF12044FF0100C7D
:101770004FF0000C130E04BF12020CF1080C130FF3
:1017800004BF12010CF1040C930F04BF92000CF182
:10179000020CD30F04BF52000CF1010C11464FF0A4
:1017A0000002A0F11F00A0EB0C00704711F0004FE9
:1017B00008BF704731F000413FF4D5AF0B0C06BFB6
:1017C00009044FF0100C4FF0000C0B0E04BF09027F
:1017D0000CF1080C0B0F04BF09010CF1040C8B0F6A
:1017E00004BF89000CF1020CCB0F04BF49000CF1BF
:1017F000010CCCF12003A0EB0C0022FA03F302FA57
:101800000CF241EA030100F10100704720F07F4C27
:1018100080EA030023F07F47ACEB070303F57C531A
:1018200000F0004003F1FF032DE980494FEA154B1A
:1018300009B44FEA144325EA0B4E24EA03480FF299
:10184000042606EB132749083E785FEA320203FBC1
:101850000667C7F5000707FB06F64FEA54374FEA5D
:10186000D64606F1020607FB066CCCF1005C4FEA97
:101870001C472CEA074C07FB06F40CFB06F504EBAF
:1018800015464FEA961634BF00204FF000404FEA4D
:10189000D13706FB07FC4FEA1C4C0CFB0BF7D21BA5
:1018A00003FB0CF761EB07010CFB0EF7B0EB0740F5
:1018B00072EB17420CFB08F734BFA2EB0742B2EB06
:1018C000074261EB17414FEA0C444FEA910706FBD0
:1018D00007FC4FEA1C4C0CFB0BF7B0EBC74072EB5C
:1018E000573203FB0CF734BFA2EBC742B2EBC7423F
:1018F00061EB57310CFB0EF7B0EBC70072EB577280
:101900000CFB08F734BFA2EBC702B2EBC70261EBD6
:101910005771039F4FEA816141EA921104EBCC04B5
:101920004FEAD1374FEA826206FB07FC42EA901287
:101930004FEA80604FEA1C4C0CFB0BF7D21B03FBF9
:101940000CF761EB07010CFB0EF7B0EB074072EBF5
:1019500017420CFB08F734BFA2EB0742B2EB074279
:1019600061EB17414FEA8C554FEA910704EB9C2439
:1019700006FB07FC4FEA1C4C0CFB0BF7B0EBC74017
:1019800072EB573203FB0CF734BFA2EBC742B2EB4A
:10199000C74261EB57310CFB0EF7B0EBC70072EB9F
:1019A00057720CFB08F734BFA2EBC702B2EBC702B9
:1019B00061EB577115EB4C254FEA816141EA9211B9
:1019C0004FEA82624FEAD13742EA901206FB07FCE7
:1019D00044F100044FEA80604FEA1C4C0CFB0BF70B
:1019E000D21B03FB0CF761EB07010CFB0EF7B0EB0E
:1019F000074072EB17420CFB08F734BFA2EB07421B
:101A0000B2EB074261EB174115EB1C154FEA813130
:101A100041EA92414FEA823242EA90424FEA8030F4
:101A20004FEA0C7644F1000448EA03434EEA0B48BF
:101A30004FF0000EB2EB080C71EB030724BF6246B7
:101A400039464EEB0E0E4FF0000B00185241494143
:101A50004BEB0B0BB2EB080C71EB03077BF1000BAC
:101A600024BF624639464EEB0E0E4FF0000B0018B5
:101A7000524149414BEB0B0BB2EB080C71EB0307E6
:101A80007BF1000B24BF624639464EEB0E0E51EA45
:101A9000020718BF46F0010616EB0E7655F100025C
:101AA00054F1000103D5BDE88901BDE80088BDE817
:101AB0008901BDE80048B619524141EB0101A3F18B
:101AC0000103704780807F7E7D7C7B7A7978777692
:101AD00076757473727171706F6E6E6D6C6C6B6A0B
:101AE0006A696868676666656464636362616160A9
:101AF000605F5F5E5E5D5D5C5C5B5B5A5A59595826
:101B0000585757565655555554545353525252518F
:101B1000515050504F4F4F4E4E4D4D4D4C4C4C4BE5
:101B20004B4B4A4A4A49494948484847474747462C
:101B30004646454545444444444343434342424268
:101B40004241414146EA0646A3F570534FEA164624
:101B500046EA42564FEAD22242EA415210B54FEAD3
:101B6000D121A3F1010300F02FF820F0004000F193
:101B7000020C00F0004701EB00501146BCF5006F6D
:101B800040EA070000D210BDBAF1000F0AD01CB520
:101B900003B44FF004004FF004014FF000000FBCFD
:101BA000BDE810404FF00001BBF1010FB9BF044880
:101BB0004FF0FF310348002140EA070010BD00BF8D
:101BC000FFFFEF7F0000F07F002B9C4630D47700B2
:101BD0002BD01CB54FEA370703B44FF010004FF07D
:101BE0001001BAF1000F06D0BCF1000FDCBF40F0CD
:101BF000080040F008014FF000000FBCBDE81040A5
:101C00000BF1010BBBF1010F08BF5FEA170722BF01
:101C100012F1010211F101014FF0004143F1000303
:101C200000F0004043EA00007047F9D35708D0E7BE
:101C300046EA064613F1400F4FEA16461FDD13F140
:101C4000200FDFBF16430A46002120335B42BED07F
:101C5000C3F1200746EA064602FA07F74FEA16469E
:101C600046EA0706C3F1200722FA03F201FA07F752
:101C700021FA03F14FF0000342EA0702A7E746EA20
:101C8000020646EA06464FEA164646EA0106BCBF89
:101C900046EA0646360C4FF000034FF000024FF0C4
:101CA000000194E72DE9804C9A46934670B491E880
:101CB000380007C831EA400C48BF34EA430C03D56A
:101CC000FFF7A4FDFFF780FFF0BCBDE8008C2DE915
:101CD000804C9A46934670B491E8380007C831EAC0
:101CE000400C48BF34EA430C03D5FFF78FFDFFF7E4
:101CF00029FFF0BCBDE8008C2DE9804C9A46934644
:101D000070B491E8380007C810F0804F08BF13F096
:101D1000804F03D100F01AF8FFF756FFF0BCBDE882
:101D2000008C2DE9804C9A46934670B491E83800B7
:101D300007C810F0804F08BF13F0804F03D100F0A8
:101D400005F8FFF7FFFEF0BCBDE8008C20F07F47F0
:101D500080EA030023F07F4C07EB0C03A3F57C53D0
:101D600000F00040A3F1FE0392F0000F00F0B380FA
:101D700095F0000F00F077802DE901494FEA1140FE
:101D80004FEA144621EA004800FB06FC24EA064715
:101D900008FB06F607FB08F800FB07F718EB0648F8
:101DA0004CEB164C4FEA124B18EB07484FEA15461E
:101DB0004CEB174022EA0B4E0BFB06FC25EA0647CC
:101DC0000EFB06F607FB0EFE0BFB07F71EEB064E9F
:101DD0004CEB164C4FF000061EEB074E4CEB174B2E
:101DE00018EB0B0840F1000018EB0E0B58EB000845
:101DF00040F100008F1A4FF000013CBFC943661B41
:101E000014BFB5EB040C00213CBFC943F61B4FEADD
:101E100017444EEA8E0E27EA04454FEA1C4704FB9E
:101E200007622CEA074C05FB07F70CFB05F604FBE1
:101E30000CFC16EB074642EB174216EB0C4642EB46
:101E40001C421BEB060658EB0202414146EA9E0685
:101E500001D5BDE80189B619524141EB0101A3F159
:101E60000103BDE801894FEA14454FEA114724EA0E
:101E7000054621EA074C05FB07F406FB07F70CFBB8
:101E800006F105FB0CFC11EB074144EB17444FEA4C
:101E9000124711EB0C4144EB1C4422EA074C05FBB2
:101EA00007F206FB07F70CFB06F605FB0CFC16EB2E
:101EB000074642EB174216EB0C4642EB1C456A18EC
:101EC00054F1000148BF7047B619524141EB01017E
:101ED000A3F10103704795F0000F37D04FEA11428C
:101EE0004FEA144721EA024624EA074C02FB07F1B5
:101EF00006FB07F70CFB06F402FB0CFC14EB074493
:101F000041EB17414FEA154714EB0C4441EB1C41E0
:101F100025EA074C02FB07F506FB07F70CFB06F664
:101F200002FB0CFC16EB074645EB174516EB0C467F
:101F300045EB1C42121951F1000148BF7047B61918
:101F4000524141EB0101A3F1010370474FEA1445EF
:101F50004FEA114724EA054621EA074C05FB07F141
:101F600006FB07F70CFB06F24FF0000605FB0CFC26
:101F700012EB074241EB174112EB0C4251EB1C41B3
:101F800048BF7047921841EB0101A3F1010370476C
:101F900010B50021054801F0A3F900BF034801F086
:101FA00082F9B0F57A7FF9DB10BD0000002C01400A
:101FB00010B50121C80200F011FE00200749488039
:101FC0004FF6FF70888047200880054801F08AF9A5
:101FD0000121034801F05BF910BD0000240300203B
:101FE000002C014070B505460C4665B92CB94FF47C
:101FF00080711A4800F0F3FC2FE04FF4807117480D
:1020000000F0EBFC29E0012D0BD124B96902134843
:1020100000F0E5FC21E04FF40071104800F0DDFC19
:102020001BE0022D0BD124B969020C4800F0D7FC4B
:1020300013E04FF48061094800F0CFFC0DE0032D60
:102040000BD12CB94FF40061044800F0C8FC04E047
:102050004FF40061014800F0C0FC70BD0008014071
:1020600010B50121042000F0B9FD10200D49C87001
:102070004FF470600880032088700B4800F0D0FB9C
:1020800000210846FFF7AEFF00210120FFF7AAFF5D
:1020900000210220FFF7A6FF00210320FFF7A2FF87
:1020A00010BD0000B40000200008014010B501215F
:1020B000052000F093FD4FF480501549088003205F
:1020C00088704820C870134800F0AAFB0C2100203B
:1020D00000F086FB4FF4805000F098FA00200E4983
:1020E00008714FF4805008600C20487101208871FD
:1020F000084600F02BFB2820084908700020487093
:1021000088700120C870084600F0BCFC10BD0000BB
:10211000C800002000080140CC000020D4000020AE
:1021200010B54FF4805000F005FB60B129480078ED
:10213000012804D128480068401C274908604FF452
:10214000805000F05DFA4FF4004000F0F3FA0028F0
:102150003FD0322001F04DFC4FF400411F4800F009
:1021600033FC90BB1E480078401C1D49087008468F
:102170000078002812DD0846007801280EDC0121D5
:102180000320FFF72FFF0121032000F0B3FC012003
:102190001449087000201049086016E010480078C3
:1021A000012812DD0E48007802280EDC00210320F1
:1021B000FFF718FF0021032000F09CFC00200949D4
:1021C000087005490860064908704FF4004000F0A7
:1021D00017FA10BD670000206C00002000080140C5
:1021E000330000206000002010B50121052000F020
:1021F000F5FC4FF400401549088003208870482002
:10220000C870134800F00CFB0F21002000F0E8FA22
:102210004FF4004000F0FAF900200E4908714FF425
:10222000004008600C20487101208871084600F0C9
:102230008DFA282008490870002048708870012015
:10224000C870084600F01EFC10BD0000D800002039
:1022500000080140DC000020E400002010B5082048
:1022600000F068FA00285CD0322001F0C2FB08219F
:102270002C4800F0A9FB002850D12B480078401CC6
:10228000294908700846007800281CDD08460078B7
:10229000012818DC01210220FFF7A4FE0121022001
:1022A00000F028FC0120214908701C2001218140F8
:1022B0004209920002F1E022C2F8001100BF0120A1
:1022C0001B4908702AE018480078012826DD1648C6
:1022D0000078022822DC0021164A1160516000209B
:1022E000154A106050600220FFF77CFE002102209A
:1022F00000F000FC00200D4908700D4908701C20FA
:10230000012181400D4A430942F8231000BF0020FB
:10231000054908700A4908700A490860082000F059
:102320006FF910BD000C0140320000206100002058
:1023300068000020880000207000002080E100E09C
:10234000670000206C00002010B50121092000F07A
:1023500045FC082016490880032088704820C87072
:102360000121144800F0E8FA1149134800F058FA26
:102370000321012000F034FA082000F047F9002082
:102380000E490871082008600C20487101208871EE
:10239000084600F0DBF90920094908700020487060
:1023A00088700120C870084600F06CFB10BD00006A
:1023B000D800002000023000000C0140DC000020AA
:1023C000E400002010B5102000F0B4F9002846D039
:1023D000322001F00EFB1021214800F0F5FA002810
:1023E0003AD120480078401C1E4908700846007801
:1023F000002811DD0846007801280DDC012108467F
:10240000FFF7F0FD0121084600F074FB012016499A
:102410000870164908701FE01248007801281BDD7B
:1024200010480078022817DC00210120FFF7DAFDB0
:102430000021012000F05EFB00200A4908700A49D3
:10244000087008490870094908700021084A11609D
:102450005160084A11605160102000F0D1F810BDA1
:10246000000C014031000020630000206A000020C1
:10247000800000209800002010B50121092000F004
:10248000ADFB102013490880032088704820C870D5
:10249000114800F0C5F90421012000F0A1F9102035
:1024A00000F0B4F800200D490871102008600C20DD
:1024B000487101208871084600F048F90A2008494F
:1024C00008700020487088700120C870084600F02D
:1024D000D9FA10BDD8000020000C0140DC0000201B
:1024E000E400002010B50121092000F077FB202036
:1024F00013490880032088704820C870114800F0F4
:102500008FF90521012000F06BF9202000F07EF802
:1025100000200D490871202008600C20487101201E
:102520008871084600F012F9172008490870002049
:10253000487088700120C870084600F0A3FA10BDEA
:10254000D8000020000C0140DC000020E400002046
:1025500010B5202000F0EEF8002844D0322001F021
:1025600048FA2021204800F02FFA002838D11F48CF
:102570000078401C1D49087008460078002811DDCD
:102580000846007801280DDC01210020FFF72AFD14
:102590000121002000F0AEFA01201549087015490C
:1025A00008701DE011480078012819DD0F480078F7
:1025B000022815DC00210846FFF714FD002108461B
:1025C00000F098FA00200949087000210A4A1160B9
:1025D00051600A4A11605160054908700549087048
:1025E000202000F00DF810BD000C0140300000204C
:1025F0006200002069000020780000209000002088
:102600000149086070470000140401400149086056
:10261000704700001404014010B50121084600F085
:10262000CDFA41F61F4011490880632088800020C0
:1026300048804FF0804000F055FE0121880700F0EF
:1026400023FE01221146900700F041FE0121880778
:1026500000F01DFE1C20064908700020487088709C
:102660000120C870084600F00DFA10BD400300209C
:10267000C400002010B50121022000F09FFA41F6AD
:102680001F401149088009208880002048800F4899
:1026900000F028FE01210D4800F0F6FD0122114650
:1026A0000A4800F014FE0121084800F0F0FD1D204A
:1026B000074908700020487088700120C8700846DB
:1026C00000F0E0F910BD00004003002000040040CD
:1026D000C400002010B50121042000F06FFA41F67B
:1026E0001F401149088009208880002048800F4839
:1026F00000F0F8FD01210D4800F0C6FD0122114651
:102700000A4800F0E4FD0121084800F0C0FD1E2049
:10271000074908700020487088700120C87008467A
:1027200000F0B0F910BD0000400300200008004098
:10273000C400002001460020034A12680A400AB182
:10274000012000E0002070471404014000212349CB
:102750008279002A3AD00A46126803689A430B46E7
:102760001A600A1D126803689A430B1D1A600279E9
:1027700011440A6803681A430A60184A083212684A
:1027800003689A43154B08331A601A1D12680368D0
:102790009A43124B0C331A604279102A0ED11A1F39
:1027A000126803681A430D4B08331A601A1D126829
:1027B00003681A43094B0C331A600DE0074942794C
:1027C00011440A6803681A430A6005E0027911445B
:1027D0000A6803689A430A607047000000040140D9
:1027E00030B500228B071C0F0F2303FA04F20B4BAA
:1027F0008C1053F824309343084C8D1044F8253046
:1028000023468C1053F824308C07240F00FA04F46C
:102810002343024C8D1044F8253030BD08000140A0
:102820002DE9F04102460025002600200023002467
:10283000002791F803C00CF00F0591F803C00CF0CD
:10284000100CBCF1000F03D091F802C04CEA050552
:1028500091F800C0BCF1000F31D0146800202BE0CB
:102860004FF0010C0CFA00F3B1F800C00CEA0306BB
:102870009E4220D183004FF00F0C0CFA03F7BC43AB
:1028800005FA03FC4CEA040491F803C0BCF1280FDC
:1028900006D14FF0010C0CFA00FCC2F814C00AE09B
:1028A00091F803C0BCF1480F05D14FF0010C0CFAB0
:1028B00000FCC2F810C0401C0828D1D31460B1F845
:1028C00000C0BCF1FF0F34DD546800202EE000F1A1
:1028D000080C4FF0010808FA0CF3B1F800C00CEA3C
:1028E00003069E4221D183004FF00F0C0CFA03F730
:1028F000BC4305FA03FC4CEA040491F803C0BCF1A4
:10290000280F05D100F1080C08FA0CF8C2F8148061
:1029100091F803C0BCF1480F07D100F1080C4FF04B
:10292000010808FA0CF8C2F81080401C0828CED321
:102930005460BDE8F0810000F0B50A460023002491
:102940000021002500F00046B6F1004F02D11D4ED7
:10295000F16901E01B4E7168C0F3034583B200F4D6
:102960004016B6F5401F08D121F07061154E76680B
:1029700026F07066134F7E6012E000F48016B6F504
:10298000801F06D1032606FA05F4A14341F07061C9
:1029900006E0460D360103FA06F6B14341F07061D8
:1029A00022B1460D360103FA06F6314300F0004627
:1029B000B6F1004F02D1034EF16101E0014E7160AA
:1029C000F0BD0000000001400246002093680B406B
:1029D0000BB1012000E000207047416170470161A8
:1029E0007047000010B504460B48844204D181159D
:1029F0000A48FFF7F2FF0EE00948844204D10221A1
:102A00000848FFF7EAFF06E00748844203D10221A5
:102A10000248FFF7E2FF10BD00380140000C014002
:102A200000440040000801400048004000F01F0240
:102A3000012191404209920002F1E022C2F8001106
:102A4000704700F01F02012191404209920002F1FB
:102A5000E022C2F80011704700F01F0201219140EE
:102A60004209920002F1E022C2F80011704700F022
:102A70001F02012191404209920002F1E022C2F8B6
:102A80000011704770B5002100230F22C47804B3F1
:102A9000154C246804F4E064C4F5E064210AC1F133
:102AA0000403CA40447804FA03F1847814402143B3
:102AB00009010E4C0678A155047804F01F05012485
:102AC000AC4005786D11AD0005F1E025C5F8004179
:102AD00009E0047804F01F050124AC40044D067899
:102AE000761145F8264070BD0CED00E000E400E0F2
:102AF00080E100E070B505460C4665B92CB94FF48D
:102B000080511A48FFF76BFF2FE04FF480511748B0
:102B1000FFF763FF29E0012D0BD124B969031348A6
:102B2000FFF75DFF21E04FF400511048FFF755FF1C
:102B30001BE0022D0BD124B969030C48FFF74FFFAE
:102B400013E04FF480410948FFF747FF0DE0032DE4
:102B50000BD12CB94FF400410448FFF740FF04E0CB
:102B60004FF400410148FFF738FF70BD000C0140F1
:102B700010B50121082000F031F810200D49C8706F
:102B80004FF470400880032088700B48FFF748FE20
:102B900000210846FFF7AEFF00210120FFF7AAFF42
:102BA00000210220FFF7A6FF00210320FFF7A2FF6C
:102BB00010BD0000B8000020000C014029B1064AF9
:102BC000D2690243044BDA6104E0034AD2698243CA
:102BD000014BDA61704700000010024029B1064A3B
:102BE00092690243044B9A6104E0034A926982436A
:102BF000014B9A61704700000010024030B500217F
:102C00000022002400232D4D6D6805F00C0121B138
:102C1000042905D0082923D105E0294D056022E0CB
:102C2000274D05601FE0254D6D6805F47012234D9A
:102C30006D6805F48034022505EB92421CB9214DE4
:102C4000554305600BE01D4D6D6805F400351DB161
:102C50001C4D5543056002E0194D5543056002E0E7
:102C6000174D056000BF00BF144D6D6805F0F00101
:102C70000909154D6B5C0568DD4045600F4D6D68B9
:102C800005F4E061090A104D6B5C4568DD40856024
:102C90000A4D6D6805F46051C90A0B4D6B5C4568BF
:102CA000DD40C560054D6D6805F44041890B074D59
:102CB0006B5CC568B5FBF3F5056130BD00100240E3
:102CC00000127A0000093D00A0000020B0000020A2
:102CD00010B501210820FFF781FF10201749C870A7
:102CE00000010880032088701548FFF799FD012135
:102CF0000420FFF773FF10201049C87002200880DD
:102D0000032088700F48FFF78BFD01210820FFF793
:102D100065FF10200949C8700220088003208870D0
:102D20000748FFF77DFD0848FFF75CFE0748FFF7FF
:102D300059FE0748FFF756FE10BD0000C0000020F6
:102D4000000C0140000801400038014000440040F0
:102D50000048004070B504460D4600BF8021204663
:102D600000F0AAFC0028F9D02946204600F071FDA9
:102D700070BD2DE9F04107460D46164600240BE0D4
:102D8000384600F037F8295D3846FFF7E3FF601C4E
:102D9000C4B23846FFF726FEB442F1DBBDE8F0814D
:102DA00010B501210920FFF719FF04200E49C87052
:102DB0004FF408600880032088700C48FFF730FD4E
:102DC00001210420FFF70AFF04200749C8700820EA
:102DD0000880032088700648FFF722FD01210420A7
:102DE000FFF7AAFD10BD0000BC000020000C014050
:102DF0000008014010B504460B48844204D18115F7
:102E00000A48FFF7ECFD0EE00948844204D1022194
:102E10000848FFF7E4FD06E00748844203D1022199
:102E20000248FFF7DCFD10BD00380140000C0140F6
:102E300000440040000801400048004010B500F088
:102E400001F810BD0CB500200190009033480068D7
:102E500040F480303149086000BF3048006800F419
:102E6000003000900198401C0190009818B901981A
:102E7000B0F5A06FF1D12948006800F4003010B11E
:102E80000120009001E0002000900098012843D12B
:102E90002348006840F01000214908600846006897
:102EA00020F0030008600846006840F00200086057
:102EB0001A48406819494860084640684860084612
:102EC000406840F4806048600846406820F47C1008
:102ED00048600846406840F4E810486008460068CA
:102EE00040F08070086000BF0C48006800F000707F
:102EF0000028F9D00948406820F0030007494860DD
:102F00000846406840F00200486000BF034840683F
:102F100000F00C000828F9D10CBD000000100240A0
:102F20000020024010B5FFF7DDFAFFF7A5FAFFF722
:102F30000BFAFFF759F910BD10B51348006840F0BF
:102F400001001149086008464068104908400E49D0
:102F50004860084600680E4908400B49086008466A
:102F6000006820F4802008600846406820F4FE00D5
:102F700048604FF41F008860FFF760FF4FF000606B
:102F80000449086010BD0000001002400000FFF876
:102F9000FFFFF6FE08ED00E010B500F05EFCFFF765
:102FA0005FF8FFF7E5FDFFF703F800F03FFA00F0E8
:102FB00029FAFFF7B7FF00F061FCFFF789FE10BDAB
:102FC0002DE9F0410121880700F070F900285AD05E
:102FD00030480078401C2F490870084600780028C7
:102FE00009DD08460078642805DC2B4800780128B4
:102FF00001D12A49087027480078642843DD254814
:10300000007865283FDC2448007801283BD1002067
:103010002249087022480068224908600846006872
:1030200001F0CEF9064600221F4B01F035F80446A8
:103030001E480CC8204600F073FF1C4A03C21B4800
:10304000D0E900101A4AC2E900101A4817490CC802
:1030500003C901F059FA11D21748007801280DD0A0
:1030600000200D4908700021104A116051600220B3
:10307000FFF740FD00210220FEF7B4FF00200849C1
:103080000860044908700121880700F0FDF8BDE8D8
:10309000F08100003400002068000020670000205C
:1030A0006C0000204000002000207C4070000020C8
:1030B00048000020880000206100002000B587B093
:1030C00001211B4800F0F2F858B31A480088401C50
:1030D000184908801848FFF785FC16480088B0F5A5
:1030E0007A7F1EDD1348008840F2E931884218DCFF
:1030F000124803C8CDE90401114803C8CDE9020113
:10310000104903C9104ACDE9000110A11548FDF787
:1031100071F8342213490848FFF72BFE00200549B7
:1031200008800121024800F0AFF807B000BD0000A0
:1031300000040040360000200048004058000020F5
:103140005000002048000020FF02002025732C259D
:10315000342E31662C25342E31662C25342E3166E2
:10316000000000001801002010B50121384800F0CF
:103170009DF8002867D037480078401C3549087012
:103180000846007864285EDD0846007865285ADC29
:1031900031480078012827D14FF011322F4B3049A8
:1031A00003C900F0BDFE2E4A03C22D48D0E900102D
:1031B0002C4AC2E900102C4829490CC803C901F067
:1031C000A3F911D22948007801280DD00020244A03
:1031D000106050602049087000210846FFF78AFC03
:1031E00000210846FEF7FEFE21480078012827D17D
:1031F0004FF011321F4B204903C900F091FE1E4AC7
:1032000003C21D48D0E900101C4AC2E900101C4846
:1032100019490CC803C901F077F911D2194800788F
:1032200001280DD00020124908700021124A1160B7
:1032300051600120FFF75EFC00210120FEF7D2FE65
:103240000020044908700121014800F01DF810BD5C
:103250000008004035000020690000201111913F56
:103260007800002050000020900000206200002024
:103270006A0000201111A13F8000002058000020AA
:103280009800002063000020CA430282704721B1E9
:10329000028842F00102028004E002884FF6FE73C9
:1032A0001A40028070470146888C704730B502464C
:1032B000002000230024158A05EA0103958905EA08
:1032C000010413B10CB1012000E0002030BD1AB19F
:1032D00083890B43838102E083898B438381704719
:1032E00081847047002202881D4B98420ED01D4BEE
:1032F00098420BD0B0F1804F08D01B4B984205D0BC
:103300001A4B984202D01A4B984204D14FF68F7351
:103310001A404B881A43174B984207D0164B9842D5
:1033200004D04FF6FF431A40CB881A4302808B88A3
:1033300083850B8803850A4B98420BD0094B984232
:1033400008D00E4B984205D00D4B984202D00D4B41
:10335000984201D10B7A03860123838270470000D3
:10336000002C0140003401400004004000080040EF
:10337000000C0040001000400014004000400140DC
:10338000004401400048014010B501210920FFF729
:1033900025FC18200E49C8704FF48860088003206F
:1033A00088700C48FFF73CFA01210420FFF716FC57
:1033B00018200749C8700420088003208870064838
:1033C000FFF72EFA01210420FFF7B6FA10BD000026
:1033D000BC000020000C01400008014010B504466C
:1033E00010210748FFF7FBFA204600F002FB1021EE
:1033F0000348FFF7F2FA204600F0FBFA10BD000088
:103400000008014010B501210420FFF7E7FB102060
:1034100004490880032088701020C8700248FFF714
:10342000FFF910BDC80000200008014010B5FFF7EB
:10343000F3F8FFF71FF9FFF74DF91C20FFF70CFB1E
:103440001D20FFF709FB1E20FFF706FB10BD000043
:1034500010B540F22551164800F03BF908B3144866
:1034600000F0F2F9C4B27A2C08D10020114908709A
:103470000120114908700020104908700D4800789B
:10348000612808D10E480D49097844540B4800784A
:10349000401C0A490870612C02D16120054908705E
:1034A00000BF40F22551024800F0A2F810BD000014
:1034B000003801403D00002064000020380000205A
:1034C0009A01002010B540F22551164800F001F98C
:1034D00008B3144800F0B8F9C4B27A2C08D100201F
:1034E0001149087001201149087000201049087026
:1034F0000D480078612808D10E480D4909784454D8
:103500000B480078401C0A490870612C02D16120E8
:103510000549087000BF40F22551024800F068F8E4
:1035200010BD0000004400403C0000206500002069
:10353000390000207C01002010B540F225512648BA
:1035400000F0C7F8002841D0234800F07DF9C4B24C
:10355000742C04D1002021490870214908701F48AB
:103560000078772808D11F481D49097844541C4821
:103570000078401C1A49087018480078612808D162
:10358000194817490978445415480078401C1449D3
:10359000087012480078622808D114481049097848
:1035A00044540F480078401C0D490870622C02D129
:1035B00062200A490870612C02D161200749087015
:1035C000772C02D177200549087000BF40F22551C1
:1035D000014800F00DF810BD004800403B000020FD
:1035E0003A000020B00100201402002078020020E0
:1035F00010B50022002340F66A14A14200D100BF9A
:103600000A1201249440A3B2DC43048010BD21B10E
:10361000828942F40052828104E082894DF6FF7370
:103620001A4082817047000010B501214FF4C0207C
:10363000FFF7C4FA01218803FFF7D0FA4FF41650C0
:1036400019490860002088810C20488100200881E9
:10365000C8808880154800F08BF81349144800F0A2
:1036600087F81149134800F083F801210F48FFF74C
:10367000CEFF01210E48FFF7CAFF01210D48FFF7D9
:10368000C6FF012240F22551084800F04CF8012203
:1036900040F22551064800F046F8012240F225513B
:1036A000044800F040F810BD3003002000480040FE
:1036B000004400400038014002460020B1F5007F80
:1036C00000D100BF13880B400BB1012000E00020A7
:1036D000704770B50246002400230025002040F604
:1036E0006A16B14200D100BFC1F3421501F01F03B9
:1036F000012606FA03F3012D02D19689334006E034
:10370000022D02D1168A334001E0968A33400C1212
:10371000012606FA04F41688344013B10CB10120D6
:1037200000E0002070BDF0B503460024002600250F
:10373000002040F66A17B94200D100BF1846C1F315
:10374000421401F01F06012707FA06F5012C01D1EA
:103750000C3004E0022C01D1103000E014301AB11A
:1037600007682F43076002E00768AF430760F0BDBA
:103770002DE9F04786B005460E460024A24600BF5C
:10378000A1460027B08900B100BF2F462C8A4CF615
:10379000FF700440F08804432C82AC894EF6F3108D
:1037A0000440B08831890843718908430443AC81DF
:1037B000AC8A4FF6FF400440B0890443AC8201A8B4
:1037C000FFF71CFA1F48874202D1DDF810A001E084
:1037D000DDF80CA0A88900F4004040B10AEBCA0053
:1037E00000EB0A1031684900B0FBF1F807E00AEB82
:1037F000CA0000EB0A1031688900B0FBF1F86420C0
:10380000B8FBF0F004012009642101FB1089A889AC
:1038100000F4004040B1322000EBC900B0FBF1F0F1
:1038200000F00700044308E0322000EB0910642197
:10383000B0FBF1F000F00F0004432C8106B0BDE8AE
:10384000F08700000038014001468888C0F3080076
:103850007047C1F308028280704710B5FFF7E4FE9D
:10386000FFF79EFAFFF790FD2520FFF7EAF82620E4
:10387000FFF7E7F82720FFF7E4F810BD10B5FEF7D3
:1038800015FC2820FFF7F3F81C20FFF7F0F810BD17
:10389000490050EAC12018BF04204A0D18BF40F06B
:1038A000010040F2FF72B2EB515F08BF40F002002E
:1038B000012808BF0520704740F2013200204FF078
:1038C000E04100F07DBF0000024A0020110700F037
:1038D00077BF000001FDFFFF10B50446D1E90001EC
:1038E00000F002F8206010BDF8B504460D466A46A7
:1038F00000F088F800987E30009000281EDC00223E
:1039000013462046294600F01FFD17D0002140F63F
:1039100008004FF0000006462046294600F0CEFA87
:10392000044640F6080006EA00014FF0000034F0BB
:10393000004004BF0220FCF79FFD29E00098FF280B
:1039400028DB002108464FF0000000F4400600226A
:1039500013462046294600F0D7FD8CBF00250125DF
:103960000220FCF789FD4FF0FF4446B1002D0CBF4B
:103970004FF400004FF48000B04218BF084C0421FF
:1039800008464FF00000002D04BF84F00040F8BD51
:103990002046F8BD20462946BDE8F84000F08EBA22
:1039A000FFFF7F7F10B504460A46D4E9000319469D
:1039B00000F054F8C4E9000110BD30380A2801D2E3
:1039C000012070470020704730B583B00446FCF7F3
:1039D0004EFD05460020CDE900000246214668461E
:1039E000FCF7B2FF2846FCF747FDDDE9000103B014
:1039F00030BD10B5044602E0FEF7CAFA641E002C82
:103A0000FAD110BD10B5144600222260114A21F0EF
:103A100000439342A8BF10BD53EA000208BF10BD87
:103A2000B3F5801FA8BF226807DA362200F0C8FE6F
:103A30006FF0350221F000432260DFF81CC06FF305
:103A40001E510CEB23531A4441F0FF5141F0005139
:103A5000226010BD0000F07F02FCFFFF2DE9F04165
:103A600006460C4640F2FF75174635EA14502BD037
:103A700000221346304600F067FC25D03A46304617
:103A8000214600F09DFE06460C4635EA145010D043
:103A900000221346304600F057FC15D10220FCF7F7
:103AA000EBFCFFF711FF0A46214662F31E01BDE859
:103AB000F0810220FCF7E0FCFFF7FEFE0A462146FB
:103AC00062F31E01BDE8F08130462146BDE8F08179
:103AD000FFF762FA70E1B948007801280ED0B848C3
:103AE000007801280AD0B7480078012806D0B648E7
:103AF0000078012802D00020B4490870AF4800784F
:103B000001280BD0AE480078012807D0AD480078D6
:103B1000012803D0AC480078012802D10120AB492C
:103B20000870AB48007800287ED0AA4800780028AA
:103B3000FAD0A94800780028F6D0A5480078752862
:103B400032D0A348FFF740FFA44A03C29F48007841
:103B5000012803D10021083A11605160A04AA14B0D
:103B60009E4903C900F0D0FC14D21C20FEF75EFF72
:103B700000209D4A1060506001209C49087001217E
:103B80000220FEF7B7FF01210220FEF72BFA0020EA
:103B900097490860924A934B904903C900F024FC6E
:103BA00002D20020914908708A48007875282CD0EC
:103BB0008848FFF709FF8F4A03C28448007801282C
:103BC00003D10020083A10605060854A854B89492E
:103BD00003C900F099FC0ED20020874A10605060A3
:103BE00001208649087001210020FEF783FF012192
:103BF0000020FEF7F7F97A4A7A4B7E4903C900F0B4
:103C0000F3FB02D200207D490870734800787528C4
:103C10002ED07148FFF7D8FE794A03C26B4800786E
:103C2000012805D1002000E02BE0083A1060506028
:103C30006B4A6C4B724903C900F066FC0ED200203F
:103C4000704A1060506001206F49087001210846D9
:103C5000FEF750FF01210846FEF7C4F9604A614BA8
:103C6000674903C900F0C0FB02D200206649087012
:103C7000574800F0EDF8574800F0EAF8564800F0D1
:103C8000E7F86248007801284ED1252000F01F0295
:103C9000012191405E4A430942F8231000BF5D496B
:103CA0005D48FCF792FB61205C4908805A48807CA3
:103CB0005B490880084600884FF6FF7101EA002042
:103CC000574908805448C47C08460088204308802F
:103CD000002007E05049095C504A128811444F4ABD
:103CE0001180401C1228F5DB4C4800884C4909889B
:103CF00088420FD1122248494A48FCF78AFB4A4BB6
:103D0000484A4AA14B48FCF775FA232249494A48D8
:103D1000FCF77FFB3F4800F09BF800203B49087010
:103D20002520FEF783FE00BF44480078012840D1DB
:103D300043494448FCF749FB612043490880414816
:103D4000007C42490880084600884FF6FF7101EA6E
:103D500000203E4908803B48407C098808433B4995
:103D60000880002007E03749095C374A128811446F
:103D7000354A1180401C1028F5DB33480088334950
:103D8000098888420FD110222E492748FCF741FBB1
:103D9000254B244A25A12748FCF72CFA2322254944
:103DA0002548FCF736FB264800F052F8002023494E
:103DB00008700A20FFF712FB8DE600006200002069
:103DC000630000206000002061000020220000202D
:103DD000B00100201402002078020020880000209A
:103DE0009A9999999999B93F70000020680000202C
:103DF0006C00002090000020780000206900002066
:103E000098000020800000206A000020640000204C
:103E100080E100E09A010020E80000202800002056
:103E200024000020100000200000002025732C2515
:103E300073000000DC020020FF020020650000206B
:103E40007C010020FA0000202A000020260000202B
:103E50000146002002E000220A54401C6328FADBDD
:103E60007047000010B500290AD00878002807D054
:103E700005487844FDF7C6F9002801D0002010BDA0
:103E80000248784410BD0000AA0A0000A20A0000FF
:103E900010B500290AD00878002807D005487844D2
:103EA000FDF7B0F9002801D0002010BD0248784489
:103EB00010BD00009A0A0000920A000021F00042A2
:103EC000A2F16052B2F5801F01F0004328BFD2F189
:103ED0007F6C0BD95FEA001C43EAC20242EB5070D0
:103EE00018BF704728BF20F001007047B2F5801F4F
:103EF000BCBF184670474FEA410C1CF5001F02D2A8
:103F0000084600F021BC70B500F0AAFA0000008954
:103F1000FFF7F6BF4FF00040A0F5800070470000AB
:103F200010B591EA030F48BF83F0004300F12A83E4
:103F3000841A71EB030C05D2121943EB0C03001B1E
:103F400061EB0C01DFF824E14FEA1154A4EB135CA0
:103F50001EEA430F18BF9EEA445F73D023EA0E03A4
:103F6000DCF1200E21EA045143F4801332D322FA0B
:103F70000CFE10EB0E0023FA0CFE41EB0E01CCF10F
:103F8000200E03FA0EFE10EB0E0051F10001B1F508
:103F9000801FCCF1200E32D201EB045112FA0EF246
:103FA000BDE8104058BF7047401C38BF5FEA42026E
:103FB00018BF7047002814BF20F0010041F1000134
:103FC0004FEA410313F5001F38BF7047A1F1C0410C
:103FD00000F094BA012A43EB0302ACF1200CDCF1AF
:103FE0001F0E32BF4FF0000E23FA0CF310EB03004C
:103FF00041EB0451B4EB115FD0D0A1EB045101F5BA
:10400000801149085FEA300001EB04510ED350F1F2
:10401000000038BF12FA0EFE08D1BDE81040C9E713
:10402000401C38BF5FEA4202CAD1C3E7BDE8104076
:104030004FEA410313F5001F38BF7047A1F1C0419B
:1040400000F05CBA9EEA445F08D011EA5E0FBDE85A
:10405000104004BF01F0004100207047BDE810404F
:1040600070B500F0FDF900BF64FBBE3E0000E0FF4C
:1040700002494FF0000000F071BB00BF0000F87F64
:10408000491058BFC1F140415B1058BFC3F14043D4
:104090008B42EFF3008070472DE9C04130B4DFF868
:1040A000A0C23CEA111418BF3CEA131400F0EC80E3
:1040B00081EA03051CEA111444EAD57418BF1CEA0E
:1040C000131500F0C780A4EB05044FF0004545EA46
:1040D000C12145EAC32341EA505143EA525304F156
:1040E0007F74994204F500344FEAC0204FEAC2229F
:1040F00008BF904200F09C804FEA13650FF2401613
:10410000765D4FEA134506FB05F7C7F1807706FB9E
:1041100007F74FEAD737A7FB03687642C8F5803820
:10412000A7FB06CE38BFA8F1010807FB08E64FF051
:10413000000EA6FB028CE6FB03CEDCF1000CCEF1F8
:10414000004E38BFAEF1010EA6FB0C584FF0000731
:104150004FF00005E6FB0E87A1FB08C6A0FB07CECB
:1041600016EB0E0645F10005E1FB076515F1E04E83
:104170007EBFA4F580345FEA46066D4116F18007E4
:1041800045F100054FEA17274FEA066647EA05673B
:10419000A6F1DE46B6F1805F4FEA15251FD93846F5
:1041A00024F0010C05EBC471BCF1FE6F01EB0C11A6
:1041B00002D8F0BCBDE8008124425CBF01F5801E3E
:1041C0009EEAC47F02D4F0BCBDE80081244238D40A
:1041D000F0BCA1F1C041BDE8004100F08FB94FEA49
:1041E000D22242EA43524FEAD323A7FB02864FEA88
:1041F000D02040EA415007FB03661EEA0E0F4FEA4B
:10420000D12105FB026658BFA6EB0056B6EB00565F
:104210004FEA520E4EEAC37E18EB0E0E56EB530ECB
:10422000BDD518EB02085E417F1C55F10005B6E7CD
:104230004FF480154FF000074FF000064FF00008D4
:10424000ADE7F0BC4FF0000001F1C04101F00041CA
:10425000BDE8008111EA0C1F0CEA131500D00CE038
:1042600013EA0C1F00F025804FF00000F0BC81EA3B
:10427000030101F00041BDE80081F0BCBDE8004150
:1042800081EA030100F03AB9F0BCBDE8004170B525
:1042900000F0E6F8097EFC3E00F007B881EA030171
:1042A0004FF0000001F00041704781EA030100F087
:1042B00025B9F0BCBDE800414FF00000214970472E
:1042C000FFFDFBF9F7F5F4F2F0EEEDEBE9E8E6E4DB
:1042D000E3E1E0DEDDDBDAD8D7D5D4D3D1D0CFCD62
:1042E000CCCBCAC8C7C6C5C4C2C1C0BFBEBDBCBB9B
:1042F000BAB9B8B7B6B5B4B3B2B1B0AFAEADACAB96
:10430000AAA9A8A8A7A6A5A4A3A3A2A1A09F9F9E6F
:104310009D9C9C9B9A999998979796959594939321
:10432000929191908F8F8E8E8D8C8C8B8B8A8989B8
:10433000888887878685858484838382828181803B
:104340000000FF070000F87F51EA030C17D41CF5AA
:10435000801F58BFBCF5801F00F10680994218BF2E
:10436000704708BF9042704707D711F5801F58BFAC
:1043700013F5801F19D499427047894270471CF584
:10438000801F08D5BCF5801FF7D58B4218BF70473A
:1043900008BF824270474FF4001C1CEB410F38BF2E
:1043A0001CEB430F01D28B42704770B500F058F8F8
:1043B000922449004FF000514FF08053FFF760BE48
:1043C000B0FA80F310FA03F10AD0C3F11D0303F52C
:1043D00080634FEA41504FEA035202EBD12170470C
:1043E0004FF000007047000051EA030C17D41CF591
:1043F000801F58BFBCF5801F00F10680994218BF8E
:10440000704708BF9042704707D711F5801F58BF0B
:1044100013F5801F19D499427047894270471CF5E3
:10442000801F08D5BCF5801FF7D58B4218BF704799
:1044300008BF824270474FF4001C1CEB410F38BF8D
:104440001CEB430F01D28B42704770B500F008F8A7
:10445000922449004FF000514FF08053FFF710BEF7
:104460000EF1020E2EF0030E5EF8046B364205D4F8
:10447000012A43EB030515F5001F12D8012841EB73
:10448000010C1CF5001F0CD80ED14FEAD17C15F59C
:10449000001F0CEB4C0C0CF1020C08BF4CEBD37C56
:1044A00004E04FF0080C01E04FEAD37C0CEB4C0524
:1044B00026FA05F606F00706B6F1040C06D20EEB56
:1044C000860CBDE870404CF0010C6047DFE80CF052
:1044D000090B02024FF000414FF00000A1F500214E
:1044E00070BD19461046012851EB010418BFD4F5E0
:1044F000001484BF002001F0004170BD0808A0F541
:1045000000114FEA3101704753EA010C17D41CF532
:10451000801F58BFBCF5801F00F106808B4218BF7A
:10452000704708BF8242704707D713F5801F58BFF6
:1045300011F5801F19D48B4270479B4270471CF5C0
:10454000801F08D5BCF5801FF7D5994218BF70476A
:1045500008BF904270474FF4001C1CEB430F38BF5C
:104560001CEB410F01D2994270470FB40CBC03BC45
:10457000FFF76BBF10B591EA030F48BF83F000430C
:104580003FF5D6AC841A71EB030C07D212198CF0EC
:10459000004C43EB0C03001B61EB0C01DFF8A4E1C2
:1045A0004FEA1154A4EB135C1EEA430F18BF9EEAB6
:1045B000445F00F0B08023EA6E03524221EA0451C6
:1045C000C3EB6E0338BF5B1EDCF1200E25D322FA4D
:1045D0000CFE10EB0E0043FA0CFE41EB0E01CCF189
:1045E000200E03FA0EFE10EB0E0051F10001CCF18B
:1045F000200E29D412FA0EF201EB0451BDE810404E
:1046000058BF7047401C1CBFB2F1004F70470028D4
:104610000CBF491C20F00100704712EB020E43EB67
:10462000030218BF4FF0010E4EEA4202ACF1200C1B
:10463000DCF11E0E54D943FA0CFE10EB0E0051F1C2
:10464000FF31CCF11E0ED5D50EF1010E12FA0EFE81
:10465000404141EB010101EB445C5FEA5C5C10D935
:1046600010EBDE7001EB045138BFBEF1004FBDE826
:10467000104018BF704700280CBF491C20F00100F3
:10468000704730D24FEAD42C11F5001124F40064A5
:104690001BD0B1FA81F20B3AA41AA41ED2F1200366
:1046A000914030FA03F31943904001EBCC71002C98
:1046B00001EB0451BDE81040A8BF704701F1C041B3
:1046C0004FF0000001F000417047B0FA80F310FA9B
:1046D00003F100D110BDE41A173C4805C90AE4E70C
:1046E00001EB045110BD491001EB0451BDE810402D
:1046F0004FEA300002E04FF0000170474A0008BF67
:104700000042F8D0B2F5001F28BF704701F0004109
:104710004FF0000070479EEA445F07D011EA5E0F39
:10472000BDE8104004BF002100207047BDE81040E4
:1047300070B5FFF795FE00BF40DFF63E83F0004105
:10474000104670470000E0FFFF2141EAD050C0054D
:1047500070474FF000007047FBF76DBF0CF00F0380
:10476000092B08BF082000F05F800A2B0BD0082B14
:1047700018BF704708BF1CF0400F0AD04FF0000070
:104780004FF0000170471CF0400F18BF4FF0004081
:1047900070471CF0100F08D020F0704300F07F42EB
:1047A00042EAD3014FEA4370704700F0604021F0C5
:1047B0007F4242EA000201F07F4040EA7270704797
:1047C0004FF0FF0C4CF4E06C1CEA11531CBF9CEA48
:1047D000030C9445C2BFDA4201EB02517047002B33
:1047E0000DD0BCF1000F0FD0002A01F00041A4BF92
:1047F00041F0E04141F07F614FF00000704701F06F
:1048000000414FF00000704750EA01334FF09B0C1D
:1048100018BF4CF0806C7FF42BAC7047FCF792BB58
:10482000FCF730BDFCF7BEBE1CF4801F11D01CF499
:10483000E02F03D06FEACC31490070474FF0405071
:10484000EFF3008222F0704242EA000282F3008815
:1048500070474FF00000704702400000000000A0C9
:104860000000000005400000000000C8000000003B
:104870000C4000000000409C0000000019400000B7
:104880000020BCBE0000000034400000BFC91B8EE9
:1048900000000004B5400000504BCFD06607E2CFC7
:1048A000010000006C4100003E8251AADFEEA734F7
:1048B00001000000D9420000DCB5A0E23A301F97A9
:1048C000FFFFFFFFB4450000FD25A0C8E9A3C14FCD
:1048D000FFFFFFFFFF3F000000000080000000001E
:1048E000FF3F00000000008000000000484A000870
:1048F00000000020E800000028010008304B0008FC
:10490000E8000020C8080000440100080000000082
:104910000000F07FFFFFFFFFFFFFEF7F1C000000A4
:1049200043000000F8FFFFFF0C0000000E00000035
:104930000F0000002E0000001001000043000000E6
:10494000F8FFFFFF004040404040404040404141B0
:104950004141414040404040404040404040404054
:1049600040404040400502020202020202020202EE
:1049700002020202022020202020202020202002EB
:10498000020202020202909090909090101010107B
:104990001010101010101010101010101010101017
:1049A00002020202020288888888888808080808AB
:1049B0000808080808080808080808080808080877
:1049C000020202024000000000000000000000009F
:1049D00000000000000000000000000000000000D7
:1049E00000000000000000000000000000000000C7
:1049F00000000000000000000000000000000000B7
:104A000000000000000000000000000000000000A6
:104A10000000000000000000000000000000000096
:104A20000000000000000000000000000000000086
:104A30000000000000000000000000000000000076
:104A4000000000000000000020302E302C2020202C
:104A5000302E302C20302E3020302E302C20302E96
:104A6000302C2020202020302E30000000000000BC
:104A70000000000000000000000000000000000036
:104A80000000000000000000000000000000000026
:104A90000000000000000000000000000000000016
:104AA0000000000000000000000000000000000006
:104AB00000000000000000000000000000000000F6
:104AC00000000000000000000000000000000000E6
:104AD00000000000000000000000000000000000D6
:104AE00000000000000000000000000001020304BC
:104AF000010203040607080902040608000000007A
:104B000000000000000000000000000000000000A5
:104B10000000000000000000000000000000000095
:104B20000000000000000000000000000000000085
:04000005080000ED02
:00000001FF
